{
  "address": "0x5FbDB2315678afecb367f032d93F642f64180aa3",
  "abi": [
    {
      "inputs": [],
      "name": "deposit",
      "outputs": [],
      "stateMutability": "payable",
      "type": "function"
    },
    {
      "inputs": [],
      "name": "getBalance",
      "outputs": [
        {
          "internalType": "uint256",
          "name": "",
          "type": "uint256"
        }
      ],
      "stateMutability": "view",
      "type": "function"
    },
    {
      "inputs": [],
      "name": "greet",
      "outputs": [
        {
          "internalType": "string",
          "name": "",
          "type": "string"
        }
      ],
      "stateMutability": "view",
      "type": "function"
    },
    {
      "inputs": [],
      "name": "withdraw",
      "outputs": [],
      "stateMutability": "nonpayable",
      "type": "function"
    }
  ],
  "transactionHash": "0x6f11fcbff1ee9b0d0c7427c4182404be4303aea543b16d347bf9aabdc45b201a",
  "args": [],
  "numDeployments": 1,
  "solcInputHash": "70a0f0ffb3c2e3390e0ff4463533d9e6",
  "bytecode": "0x608060405234801561001057600080fd5b5061059d806100206000396000f3fe60806040526004361061003f5760003560e01c806312065fe0146100445780633ccfd60b1461006f578063cfae321714610086578063d0e30db0146100b1575b600080fd5b34801561005057600080fd5b506100596100bb565b6040516100669190610334565b60405180910390f35b34801561007b57600080fd5b50610084610106565b005b34801561009257600080fd5b5061009b610287565b6040516100a891906103e8565b60405180910390f35b6100b96102c4565b005b6000806000803373ffffffffffffffffffffffffffffffffffffffff1673ffffffffffffffffffffffffffffffffffffffff1681526020019081526020016000205490508091505090565b60008060003373ffffffffffffffffffffffffffffffffffffffff1673ffffffffffffffffffffffffffffffffffffffff1681526020019081526020016000205490506000811161018c576040517f08c379a00000000000000000000000000000000000000000000000000000000081526004016101839061047c565b60405180910390fd5b6000803373ffffffffffffffffffffffffffffffffffffffff16836040516101b3906104cd565b60006040518083038185875af1925050503d80600081146101f0576040519150601f19603f3d011682016040523d82523d6000602084013e6101f5565b606091505b509150915081819061023d576040517f08c379a000000000000000000000000000000000000000000000000000000000815260040161023491906103e8565b60405180910390fd5b5060008060003373ffffffffffffffffffffffffffffffffffffffff1673ffffffffffffffffffffffffffffffffffffffff16815260200190815260200160002081905550505050565b60606040518060400160405280600b81526020017f68656c6c6f20776f726c64000000000000000000000000000000000000000000815250905090565b346000803373ffffffffffffffffffffffffffffffffffffffff1673ffffffffffffffffffffffffffffffffffffffff16815260200190815260200160002060008282546103129190610511565b92505081905550565b6000819050919050565b61032e8161031b565b82525050565b60006020820190506103496000830184610325565b92915050565b600081519050919050565b600082825260208201905092915050565b60005b8381101561038957808201518184015260208101905061036e565b83811115610398576000848401525b50505050565b6000601f19601f8301169050919050565b60006103ba8261034f565b6103c4818561035a565b93506103d481856020860161036b565b6103dd8161039e565b840191505092915050565b6000602082019050818103600083015261040281846103af565b905092915050565b7f557365722062616c616e636520696e73756666696369656e7420666f7220776960008201527f746864726177616c000000000000000000000000000000000000000000000000602082015250565b600061046660288361035a565b91506104718261040a565b604082019050919050565b6000602082019050818103600083015261049581610459565b9050919050565b600081905092915050565b50565b60006104b760008361049c565b91506104c2826104a7565b600082019050919050565b60006104d8826104aa565b9150819050919050565b7f4e487b7100000000000000000000000000000000000000000000000000000000600052601160045260246000fd5b600061051c8261031b565b91506105278361031b565b9250827fffffffffffffffffffffffffffffffffffffffffffffffffffffffffffffffff0382111561055c5761055b6104e2565b5b82820190509291505056fea2646970667358221220c15dad9dcd801e7d46d6de59bf843ff27a8a9a288a2c77ce32ec27663dc526d264736f6c63430008090033",
  "devdoc": {
    "kind": "dev",
    "methods": {},
    "version": 1
  },
  "userdoc": {
    "kind": "user",
    "methods": {},
    "version": 1
  },
  "storageLayout": {
    "storage": [
      {
        "astId": 139,
        "contract": "contracts/Bank.sol:Bank",
        "label": "userBalances",
        "offset": 0,
        "slot": "0",
        "type": "t_mapping(t_address,t_uint256)"
      }
    ],
    "types": {
      "t_address": {
        "encoding": "inplace",
        "label": "address",
        "numberOfBytes": "20"
      },
      "t_mapping(t_address,t_uint256)": {
        "encoding": "mapping",
        "key": "t_address",
        "label": "mapping(address => uint256)",
        "numberOfBytes": "32",
        "value": "t_uint256"
      },
      "t_uint256": {
        "encoding": "inplace",
        "label": "uint256",
        "numberOfBytes": "32"
      }
    }
  }
}