{
  "_format": "hh-sol-artifact-1",
  "contractName": "Auction",
  "sourceName": "contracts/Auction.sol",
  "abi": [
    {
      "inputs": [],
      "name": "bid",
      "outputs": [],
      "stateMutability": "payable",
      "type": "function"
    }
  ],
  "bytecode": "0x608060405234801561001057600080fd5b506101f0806100206000396000f3fe60806040526004361061001e5760003560e01c80631998aeef14610023575b600080fd5b61002b61002d565b005b60015434101561003c57600080fd5b600073ffffffffffffffffffffffffffffffffffffffff1660008054906101000a900473ffffffffffffffffffffffffffffffffffffffff1673ffffffffffffffffffffffffffffffffffffffff161461012b5760008060009054906101000a900473ffffffffffffffffffffffffffffffffffffffff1673ffffffffffffffffffffffffffffffffffffffff166001546040516100d9906101a5565b60006040518083038185875af1925050503d8060008114610116576040519150601f19603f3d011682016040523d82523d6000602084013e61011b565b606091505b505090508061012957600080fd5b505b336000806101000a81548173ffffffffffffffffffffffffffffffffffffffff021916908373ffffffffffffffffffffffffffffffffffffffff16021790555034600181905550565b600081905092915050565b50565b600061018f600083610174565b915061019a8261017f565b600082019050919050565b60006101b082610182565b915081905091905056fea2646970667358221220a5147bc6588f2519f3f90d59986a595a4d17f8601fe5d4727b5b9cb2bbfa53c664736f6c63430008090033",
  "linkReferences": {},
  "deployedLinkReferences": {}
}