{"contracts/Bank.sol":{"Bank":{"abi":[{"inputs":[],"name":"deposit","outputs":[],"stateMutability":"payable","type":"function"},{"inputs":[],"name":"getBalance","outputs":[{"internalType":"uint256","name":"","type":"uint256"}],"stateMutability":"view","type":"function"},{"inputs":[],"name":"greet","outputs":[{"internalType":"string","name":"","type":"string"}],"stateMutability":"view","type":"function"},{"inputs":[],"name":"withdraw","outputs":[],"stateMutability":"nonpayable","type":"function"}],"devdoc":{"kind":"dev","methods":{},"version":1},"evm":{"bytecode":{"linkReferences":{},"object":"608060405234801561001057600080fd5b5061059d806100206000396000f3fe60806040526004361061003f5760003560e01c806312065fe0146100445780633ccfd60b1461006f578063cfae321714610086578063d0e30db0146100b1575b600080fd5b34801561005057600080fd5b506100596100bb565b6040516100669190610334565b60405180910390f35b34801561007b57600080fd5b50610084610106565b005b34801561009257600080fd5b5061009b610287565b6040516100a891906103e8565b60405180910390f35b6100b96102c4565b005b6000806000803373ffffffffffffffffffffffffffffffffffffffff1673ffffffffffffffffffffffffffffffffffffffff1681526020019081526020016000205490508091505090565b60008060003373ffffffffffffffffffffffffffffffffffffffff1673ffffffffffffffffffffffffffffffffffffffff1681526020019081526020016000205490506000811161018c576040517f08c379a00000000000000000000000000000000000000000000000000000000081526004016101839061047c565b60405180910390fd5b6000803373ffffffffffffffffffffffffffffffffffffffff16836040516101b3906104cd565b60006040518083038185875af1925050503d80600081146101f0576040519150601f19603f3d011682016040523d82523d6000602084013e6101f5565b606091505b509150915081819061023d576040517f08c379a000000000000000000000000000000000000000000000000000000000815260040161023491906103e8565b60405180910390fd5b5060008060003373ffffffffffffffffffffffffffffffffffffffff1673ffffffffffffffffffffffffffffffffffffffff16815260200190815260200160002081905550505050565b60606040518060400160405280600b81526020017f68656c6c6f20776f726c64000000000000000000000000000000000000000000815250905090565b346000803373ffffffffffffffffffffffffffffffffffffffff1673ffffffffffffffffffffffffffffffffffffffff16815260200190815260200160002060008282546103129190610511565b92505081905550565b6000819050919050565b61032e8161031b565b82525050565b60006020820190506103496000830184610325565b92915050565b600081519050919050565b600082825260208201905092915050565b60005b8381101561038957808201518184015260208101905061036e565b83811115610398576000848401525b50505050565b6000601f19601f8301169050919050565b60006103ba8261034f565b6103c4818561035a565b93506103d481856020860161036b565b6103dd8161039e565b840191505092915050565b6000602082019050818103600083015261040281846103af565b905092915050565b7f557365722062616c616e636520696e73756666696369656e7420666f7220776960008201527f746864726177616c000000000000000000000000000000000000000000000000602082015250565b600061046660288361035a565b91506104718261040a565b604082019050919050565b6000602082019050818103600083015261049581610459565b9050919050565b600081905092915050565b50565b60006104b760008361049c565b91506104c2826104a7565b600082019050919050565b60006104d8826104aa565b9150819050919050565b7f4e487b7100000000000000000000000000000000000000000000000000000000600052601160045260246000fd5b600061051c8261031b565b91506105278361031b565b9250827fffffffffffffffffffffffffffffffffffffffffffffffffffffffffffffffff0382111561055c5761055b6104e2565b5b82820190509291505056fea26469706673582212201f452738f8402c1a40cb8c879aed818db15ed3086cc7e671485b499e1c49555f64736f6c63430008090033","opcodes":"PUSH1 0x80 PUSH1 0x40 MSTORE CALLVALUE DUP1 ISZERO PUSH2 0x10 JUMPI PUSH1 0x0 DUP1 REVERT JUMPDEST POP PUSH2 0x59D DUP1 PUSH2 0x20 PUSH1 0x0 CODECOPY PUSH1 0x0 RETURN INVALID PUSH1 0x80 PUSH1 0x40 MSTORE PUSH1 0x4 CALLDATASIZE LT PUSH2 0x3F JUMPI PUSH1 0x0 CALLDATALOAD PUSH1 0xE0 SHR DUP1 PUSH4 0x12065FE0 EQ PUSH2 0x44 JUMPI DUP1 PUSH4 0x3CCFD60B EQ PUSH2 0x6F JUMPI DUP1 PUSH4 0xCFAE3217 EQ PUSH2 0x86 JUMPI DUP1 PUSH4 0xD0E30DB0 EQ PUSH2 0xB1 JUMPI JUMPDEST PUSH1 0x0 DUP1 REVERT JUMPDEST CALLVALUE DUP1 ISZERO PUSH2 0x50 JUMPI PUSH1 0x0 DUP1 REVERT JUMPDEST POP PUSH2 0x59 PUSH2 0xBB JUMP JUMPDEST PUSH1 0x40 MLOAD PUSH2 0x66 SWAP2 SWAP1 PUSH2 0x334 JUMP JUMPDEST PUSH1 0x40 MLOAD DUP1 SWAP2 SUB SWAP1 RETURN JUMPDEST CALLVALUE DUP1 ISZERO PUSH2 0x7B JUMPI PUSH1 0x0 DUP1 REVERT JUMPDEST POP PUSH2 0x84 PUSH2 0x106 JUMP JUMPDEST STOP JUMPDEST CALLVALUE DUP1 ISZERO PUSH2 0x92 JUMPI PUSH1 0x0 DUP1 REVERT JUMPDEST POP PUSH2 0x9B PUSH2 0x287 JUMP JUMPDEST PUSH1 0x40 MLOAD PUSH2 0xA8 SWAP2 SWAP1 PUSH2 0x3E8 JUMP JUMPDEST PUSH1 0x40 MLOAD DUP1 SWAP2 SUB SWAP1 RETURN JUMPDEST PUSH2 0xB9 PUSH2 0x2C4 JUMP JUMPDEST STOP JUMPDEST PUSH1 0x0 DUP1 PUSH1 0x0 DUP1 CALLER PUSH20 0xFFFFFFFFFFFFFFFFFFFFFFFFFFFFFFFFFFFFFFFF AND PUSH20 0xFFFFFFFFFFFFFFFFFFFFFFFFFFFFFFFFFFFFFFFF AND DUP2 MSTORE PUSH1 0x20 ADD SWAP1 DUP2 MSTORE PUSH1 0x20 ADD PUSH1 0x0 KECCAK256 SLOAD SWAP1 POP DUP1 SWAP2 POP POP SWAP1 JUMP JUMPDEST PUSH1 0x0 DUP1 PUSH1 0x0 CALLER PUSH20 0xFFFFFFFFFFFFFFFFFFFFFFFFFFFFFFFFFFFFFFFF AND PUSH20 0xFFFFFFFFFFFFFFFFFFFFFFFFFFFFFFFFFFFFFFFF AND DUP2 MSTORE PUSH1 0x20 ADD SWAP1 DUP2 MSTORE PUSH1 0x20 ADD PUSH1 0x0 KECCAK256 SLOAD SWAP1 POP PUSH1 0x0 DUP2 GT PUSH2 0x18C JUMPI PUSH1 0x40 MLOAD PUSH32 0x8C379A000000000000000000000000000000000000000000000000000000000 DUP2 MSTORE PUSH1 0x4 ADD PUSH2 0x183 SWAP1 PUSH2 0x47C JUMP JUMPDEST PUSH1 0x40 MLOAD DUP1 SWAP2 SUB SWAP1 REVERT JUMPDEST PUSH1 0x0 DUP1 CALLER PUSH20 0xFFFFFFFFFFFFFFFFFFFFFFFFFFFFFFFFFFFFFFFF AND DUP4 PUSH1 0x40 MLOAD PUSH2 0x1B3 SWAP1 PUSH2 0x4CD JUMP JUMPDEST PUSH1 0x0 PUSH1 0x40 MLOAD DUP1 DUP4 SUB DUP2 DUP6 DUP8 GAS CALL SWAP3 POP POP POP RETURNDATASIZE DUP1 PUSH1 0x0 DUP2 EQ PUSH2 0x1F0 JUMPI PUSH1 0x40 MLOAD SWAP2 POP PUSH1 0x1F NOT PUSH1 0x3F RETURNDATASIZE ADD AND DUP3 ADD PUSH1 0x40 MSTORE RETURNDATASIZE DUP3 MSTORE RETURNDATASIZE PUSH1 0x0 PUSH1 0x20 DUP5 ADD RETURNDATACOPY PUSH2 0x1F5 JUMP JUMPDEST PUSH1 0x60 SWAP2 POP JUMPDEST POP SWAP2 POP SWAP2 POP DUP2 DUP2 SWAP1 PUSH2 0x23D JUMPI PUSH1 0x40 MLOAD PUSH32 0x8C379A000000000000000000000000000000000000000000000000000000000 DUP2 MSTORE PUSH1 0x4 ADD PUSH2 0x234 SWAP2 SWAP1 PUSH2 0x3E8 JUMP JUMPDEST PUSH1 0x40 MLOAD DUP1 SWAP2 SUB SWAP1 REVERT JUMPDEST POP PUSH1 0x0 DUP1 PUSH1 0x0 CALLER PUSH20 0xFFFFFFFFFFFFFFFFFFFFFFFFFFFFFFFFFFFFFFFF AND PUSH20 0xFFFFFFFFFFFFFFFFFFFFFFFFFFFFFFFFFFFFFFFF AND DUP2 MSTORE PUSH1 0x20 ADD SWAP1 DUP2 MSTORE PUSH1 0x20 ADD PUSH1 0x0 KECCAK256 DUP2 SWAP1 SSTORE POP POP POP POP JUMP JUMPDEST PUSH1 0x60 PUSH1 0x40 MLOAD DUP1 PUSH1 0x40 ADD PUSH1 0x40 MSTORE DUP1 PUSH1 0xB DUP2 MSTORE PUSH1 0x20 ADD PUSH32 0x68656C6C6F20776F726C64000000000000000000000000000000000000000000 DUP2 MSTORE POP SWAP1 POP SWAP1 JUMP JUMPDEST CALLVALUE PUSH1 0x0 DUP1 CALLER PUSH20 0xFFFFFFFFFFFFFFFFFFFFFFFFFFFFFFFFFFFFFFFF AND PUSH20 0xFFFFFFFFFFFFFFFFFFFFFFFFFFFFFFFFFFFFFFFF AND DUP2 MSTORE PUSH1 0x20 ADD SWAP1 DUP2 MSTORE PUSH1 0x20 ADD PUSH1 0x0 KECCAK256 PUSH1 0x0 DUP3 DUP3 SLOAD PUSH2 0x312 SWAP2 SWAP1 PUSH2 0x511 JUMP JUMPDEST SWAP3 POP POP DUP2 SWAP1 SSTORE POP JUMP JUMPDEST PUSH1 0x0 DUP2 SWAP1 POP SWAP2 SWAP1 POP JUMP JUMPDEST PUSH2 0x32E DUP2 PUSH2 0x31B JUMP JUMPDEST DUP3 MSTORE POP POP JUMP JUMPDEST PUSH1 0x0 PUSH1 0x20 DUP3 ADD SWAP1 POP PUSH2 0x349 PUSH1 0x0 DUP4 ADD DUP5 PUSH2 0x325 JUMP JUMPDEST SWAP3 SWAP2 POP POP JUMP JUMPDEST PUSH1 0x0 DUP2 MLOAD SWAP1 POP SWAP2 SWAP1 POP JUMP JUMPDEST PUSH1 0x0 DUP3 DUP3 MSTORE PUSH1 0x20 DUP3 ADD SWAP1 POP SWAP3 SWAP2 POP POP JUMP JUMPDEST PUSH1 0x0 JUMPDEST DUP4 DUP2 LT ISZERO PUSH2 0x389 JUMPI DUP1 DUP3 ADD MLOAD DUP2 DUP5 ADD MSTORE PUSH1 0x20 DUP2 ADD SWAP1 POP PUSH2 0x36E JUMP JUMPDEST DUP4 DUP2 GT ISZERO PUSH2 0x398 JUMPI PUSH1 0x0 DUP5 DUP5 ADD MSTORE JUMPDEST POP POP POP POP JUMP JUMPDEST PUSH1 0x0 PUSH1 0x1F NOT PUSH1 0x1F DUP4 ADD AND SWAP1 POP SWAP2 SWAP1 POP JUMP JUMPDEST PUSH1 0x0 PUSH2 0x3BA DUP3 PUSH2 0x34F JUMP JUMPDEST PUSH2 0x3C4 DUP2 DUP6 PUSH2 0x35A JUMP JUMPDEST SWAP4 POP PUSH2 0x3D4 DUP2 DUP6 PUSH1 0x20 DUP7 ADD PUSH2 0x36B JUMP JUMPDEST PUSH2 0x3DD DUP2 PUSH2 0x39E JUMP JUMPDEST DUP5 ADD SWAP2 POP POP SWAP3 SWAP2 POP POP JUMP JUMPDEST PUSH1 0x0 PUSH1 0x20 DUP3 ADD SWAP1 POP DUP2 DUP2 SUB PUSH1 0x0 DUP4 ADD MSTORE PUSH2 0x402 DUP2 DUP5 PUSH2 0x3AF JUMP JUMPDEST SWAP1 POP SWAP3 SWAP2 POP POP JUMP JUMPDEST PUSH32 0x557365722062616C616E636520696E73756666696369656E7420666F72207769 PUSH1 0x0 DUP3 ADD MSTORE PUSH32 0x746864726177616C000000000000000000000000000000000000000000000000 PUSH1 0x20 DUP3 ADD MSTORE POP JUMP JUMPDEST PUSH1 0x0 PUSH2 0x466 PUSH1 0x28 DUP4 PUSH2 0x35A JUMP JUMPDEST SWAP2 POP PUSH2 0x471 DUP3 PUSH2 0x40A JUMP JUMPDEST PUSH1 0x40 DUP3 ADD SWAP1 POP SWAP2 SWAP1 POP JUMP JUMPDEST PUSH1 0x0 PUSH1 0x20 DUP3 ADD SWAP1 POP DUP2 DUP2 SUB PUSH1 0x0 DUP4 ADD MSTORE PUSH2 0x495 DUP2 PUSH2 0x459 JUMP JUMPDEST SWAP1 POP SWAP2 SWAP1 POP JUMP JUMPDEST PUSH1 0x0 DUP2 SWAP1 POP SWAP3 SWAP2 POP POP JUMP JUMPDEST POP JUMP JUMPDEST PUSH1 0x0 PUSH2 0x4B7 PUSH1 0x0 DUP4 PUSH2 0x49C JUMP JUMPDEST SWAP2 POP PUSH2 0x4C2 DUP3 PUSH2 0x4A7 JUMP JUMPDEST PUSH1 0x0 DUP3 ADD SWAP1 POP SWAP2 SWAP1 POP JUMP JUMPDEST PUSH1 0x0 PUSH2 0x4D8 DUP3 PUSH2 0x4AA JUMP JUMPDEST SWAP2 POP DUP2 SWAP1 POP SWAP2 SWAP1 POP JUMP JUMPDEST PUSH32 0x4E487B7100000000000000000000000000000000000000000000000000000000 PUSH1 0x0 MSTORE PUSH1 0x11 PUSH1 0x4 MSTORE PUSH1 0x24 PUSH1 0x0 REVERT JUMPDEST PUSH1 0x0 PUSH2 0x51C DUP3 PUSH2 0x31B JUMP JUMPDEST SWAP2 POP PUSH2 0x527 DUP4 PUSH2 0x31B JUMP JUMPDEST SWAP3 POP DUP3 PUSH32 0xFFFFFFFFFFFFFFFFFFFFFFFFFFFFFFFFFFFFFFFFFFFFFFFFFFFFFFFFFFFFFFFF SUB DUP3 GT ISZERO PUSH2 0x55C JUMPI PUSH2 0x55B PUSH2 0x4E2 JUMP JUMPDEST JUMPDEST DUP3 DUP3 ADD SWAP1 POP SWAP3 SWAP2 POP POP JUMP INVALID LOG2 PUSH5 0x6970667358 0x22 SLT KECCAK256 0x1F GASLIMIT 0x27 CODESIZE 0xF8 BLOCKHASH 0x2C BYTE BLOCKHASH 0xCB DUP13 DUP8 SWAP11 0xED DUP2 DUP14 0xB1 0x5E 0xD3 ADDMOD PUSH13 0xC7E671485B499E1C49555F6473 PUSH16 0x6C634300080900330000000000000000 "},"gasEstimates":{"creation":{"codeDepositCost":"287400","executionCost":"324","totalCost":"287724"},"external":{"deposit()":"infinite","getBalance()":"2517","greet()":"infinite","withdraw()":"infinite"}},"methodIdentifiers":{"deposit()":"d0e30db0","getBalance()":"12065fe0","greet()":"cfae3217","withdraw()":"3ccfd60b"}},"storageLayout":{"storage":[{"astId":55,"contract":"contracts/Bank.sol:Bank","label":"userBalances","offset":0,"slot":"0","type":"t_mapping(t_address,t_uint256)"}],"types":{"t_address":{"encoding":"inplace","label":"address","numberOfBytes":"20"},"t_mapping(t_address,t_uint256)":{"encoding":"mapping","key":"t_address","label":"mapping(address => uint256)","numberOfBytes":"32","value":"t_uint256"},"t_uint256":{"encoding":"inplace","label":"uint256","numberOfBytes":"32"}}},"userdoc":{"kind":"user","methods":{},"version":1}}}}