{"contracts/Auction.sol":{"Auction":{"abi":[{"inputs":[],"name":"bid","outputs":[],"stateMutability":"payable","type":"function"}],"devdoc":{"kind":"dev","methods":{},"version":1},"evm":{"bytecode":{"linkReferences":{},"object":"608060405234801561001057600080fd5b506101f0806100206000396000f3fe60806040526004361061001e5760003560e01c80631998aeef14610023575b600080fd5b61002b61002d565b005b60015434101561003c57600080fd5b600073ffffffffffffffffffffffffffffffffffffffff1660008054906101000a900473ffffffffffffffffffffffffffffffffffffffff1673ffffffffffffffffffffffffffffffffffffffff161461012b5760008060009054906101000a900473ffffffffffffffffffffffffffffffffffffffff1673ffffffffffffffffffffffffffffffffffffffff166001546040516100d9906101a5565b60006040518083038185875af1925050503d8060008114610116576040519150601f19603f3d011682016040523d82523d6000602084013e61011b565b606091505b505090508061012957600080fd5b505b336000806101000a81548173ffffffffffffffffffffffffffffffffffffffff021916908373ffffffffffffffffffffffffffffffffffffffff16021790555034600181905550565b600081905092915050565b50565b600061018f600083610174565b915061019a8261017f565b600082019050919050565b60006101b082610182565b915081905091905056fea2646970667358221220a5147bc6588f2519f3f90d59986a595a4d17f8601fe5d4727b5b9cb2bbfa53c664736f6c63430008090033","opcodes":"PUSH1 0x80 PUSH1 0x40 MSTORE CALLVALUE DUP1 ISZERO PUSH2 0x10 JUMPI PUSH1 0x0 DUP1 REVERT JUMPDEST POP PUSH2 0x1F0 DUP1 PUSH2 0x20 PUSH1 0x0 CODECOPY PUSH1 0x0 RETURN INVALID PUSH1 0x80 PUSH1 0x40 MSTORE PUSH1 0x4 CALLDATASIZE LT PUSH2 0x1E JUMPI PUSH1 0x0 CALLDATALOAD PUSH1 0xE0 SHR DUP1 PUSH4 0x1998AEEF EQ PUSH2 0x23 JUMPI JUMPDEST PUSH1 0x0 DUP1 REVERT JUMPDEST PUSH2 0x2B PUSH2 0x2D JUMP JUMPDEST STOP JUMPDEST PUSH1 0x1 SLOAD CALLVALUE LT ISZERO PUSH2 0x3C JUMPI PUSH1 0x0 DUP1 REVERT JUMPDEST PUSH1 0x0 PUSH20 0xFFFFFFFFFFFFFFFFFFFFFFFFFFFFFFFFFFFFFFFF AND PUSH1 0x0 DUP1 SLOAD SWAP1 PUSH2 0x100 EXP SWAP1 DIV PUSH20 0xFFFFFFFFFFFFFFFFFFFFFFFFFFFFFFFFFFFFFFFF AND PUSH20 0xFFFFFFFFFFFFFFFFFFFFFFFFFFFFFFFFFFFFFFFF AND EQ PUSH2 0x12B JUMPI PUSH1 0x0 DUP1 PUSH1 0x0 SWAP1 SLOAD SWAP1 PUSH2 0x100 EXP SWAP1 DIV PUSH20 0xFFFFFFFFFFFFFFFFFFFFFFFFFFFFFFFFFFFFFFFF AND PUSH20 0xFFFFFFFFFFFFFFFFFFFFFFFFFFFFFFFFFFFFFFFF AND PUSH1 0x1 SLOAD PUSH1 0x40 MLOAD PUSH2 0xD9 SWAP1 PUSH2 0x1A5 JUMP JUMPDEST PUSH1 0x0 PUSH1 0x40 MLOAD DUP1 DUP4 SUB DUP2 DUP6 DUP8 GAS CALL SWAP3 POP POP POP RETURNDATASIZE DUP1 PUSH1 0x0 DUP2 EQ PUSH2 0x116 JUMPI PUSH1 0x40 MLOAD SWAP2 POP PUSH1 0x1F NOT PUSH1 0x3F RETURNDATASIZE ADD AND DUP3 ADD PUSH1 0x40 MSTORE RETURNDATASIZE DUP3 MSTORE RETURNDATASIZE PUSH1 0x0 PUSH1 0x20 DUP5 ADD RETURNDATACOPY PUSH2 0x11B JUMP JUMPDEST PUSH1 0x60 SWAP2 POP JUMPDEST POP POP SWAP1 POP DUP1 PUSH2 0x129 JUMPI PUSH1 0x0 DUP1 REVERT JUMPDEST POP JUMPDEST CALLER PUSH1 0x0 DUP1 PUSH2 0x100 EXP DUP2 SLOAD DUP2 PUSH20 0xFFFFFFFFFFFFFFFFFFFFFFFFFFFFFFFFFFFFFFFF MUL NOT AND SWAP1 DUP4 PUSH20 0xFFFFFFFFFFFFFFFFFFFFFFFFFFFFFFFFFFFFFFFF AND MUL OR SWAP1 SSTORE POP CALLVALUE PUSH1 0x1 DUP2 SWAP1 SSTORE POP JUMP JUMPDEST PUSH1 0x0 DUP2 SWAP1 POP SWAP3 SWAP2 POP POP JUMP JUMPDEST POP JUMP JUMPDEST PUSH1 0x0 PUSH2 0x18F PUSH1 0x0 DUP4 PUSH2 0x174 JUMP JUMPDEST SWAP2 POP PUSH2 0x19A DUP3 PUSH2 0x17F JUMP JUMPDEST PUSH1 0x0 DUP3 ADD SWAP1 POP SWAP2 SWAP1 POP JUMP JUMPDEST PUSH1 0x0 PUSH2 0x1B0 DUP3 PUSH2 0x182 JUMP JUMPDEST SWAP2 POP DUP2 SWAP1 POP SWAP2 SWAP1 POP JUMP INVALID LOG2 PUSH5 0x6970667358 0x22 SLT KECCAK256 0xA5 EQ PUSH28 0xC6588F2519F3F90D59986A595A4D17F8601FE5D4727B5B9CB2BBFA53 0xC6 PUSH5 0x736F6C6343 STOP ADDMOD MULMOD STOP CALLER "},"gasEstimates":{"creation":{"codeDepositCost":"99200","executionCost":"147","totalCost":"99347"},"external":{"bid()":"infinite"}},"methodIdentifiers":{"bid()":"1998aeef"}},"storageLayout":{"storage":[{"astId":3,"contract":"contracts/Auction.sol:Auction","label":"highestBidder","offset":0,"slot":"0","type":"t_address"},{"astId":5,"contract":"contracts/Auction.sol:Auction","label":"highestBid","offset":0,"slot":"1","type":"t_uint256"}],"types":{"t_address":{"encoding":"inplace","label":"address","numberOfBytes":"20"},"t_uint256":{"encoding":"inplace","label":"uint256","numberOfBytes":"32"}}},"userdoc":{"kind":"user","methods":{},"version":1}}}}